:020000040800F2
:1000000000000220790D0008C10D0008C10D000894
:10001000C10D0008C10D0008C10D0008000000005E
:10002000000000000000000000000000C10D0008FA
:10003000C10D000800000000C10D0008C10D00083E
:10004000C10D0008C10D0008C10D0008C10D000858
:10005000C10D0008C10D0008C10D0008C10D000848
:10006000C10D0008C10D0008C10D0008C10D000838
:10007000C10D0008C10D0008C10D0008C10D000828
:10008000C10D0008C10D0008C10D0008C10D000818
:10009000C10D0008C10D0008C10D0008C10D000808
:1000A000C10D0008C10D0008C10D0008C10D0008F8
:1000B000C10D0008C10D0008C10D0008C10D0008E8
:1000C000C10D0008C10D0008C10D0008C10D0008D8
:1000D000C10D0008C10D0008C10D0008C10D0008C8
:1000E000C10D0008C10D0008C10D0008C10D0008B8
:1000F000C10D0008C10D0008C10D0008C10D0008A8
:10010000C10D0008C10D0008C10D0008C10D000897
:10011000C10D0008C10D0008C10D0008C10D000887
:10012000C10D0008C10D0008C10D0008C10D000877
:10013000C10D0008C10D0008C10D0008C10D000867
:10014000C10D0008C10D0008C10D0008C10D000857
:10015000C10D0008C10D0008C10D0008C10D000847
:10016000C10D0008C10D0008C10D0008C10D000837
:10017000C10D0008C10D0008C10D0008C10D000827
:08018000C10D0008C10D0008CB
:100188000348044B834202D0034B03B1184770471E
:1001980058040020580400200000000005480649C3
:1001A8000B1AD90F01EBA301491002D0034B03B17D
:1001B8001847704758040020580400200000000029
:1001C80010B5064C237843B9FFF7DAFF044B13B197
:1001D8000448AFF300800123237010BD58040020A9
:1001E80000000000240E000808B5044B1BB10449A8
:1001F8000448AFF30080BDE80840CFE700000000E6
:100208005C040020240E0008A3F5803A704700BF64
:10021800154B002B08BF114B9D46FFF7F5FF00213A
:100228008B460F461148124A121A00F08DFC0C4BEF
:10023800002B00D098470B4B002B00D0984700208C
:10024800002104000D000B4800F02EFC00F058FCC3
:100258002000290000F05AFD00F02CFC00000800E6
:10026800000000000000000000000000580400200A
:1002780074040020DD0A0008354A36481368002156
:1002880043F0010313609160136823F0847323F42F
:10029800803313605060136882B023F480231360A6
:1002A800D16000910191136843F48033136003E037
:1002B800009BB3F5A06F09D0136803F400330193D2
:1002C800009B01330093019B002BF1D0204B1B684E
:1002D80013F4003318BF01230193019B012B05D0B0
:1002E8001D4B4FF000629A6002B07047184B1B49D3
:1002F8001A6C1B4842F080521A640A6842F4804221
:100308000A609A689A609A6842F400429A609A6809
:1003180042F4A0529A6058601A6842F080721A60DB
:100328001A689201FCD50F4A40F20561116099687C
:1003380021F003019960996841F00201A2F58062F9
:100348009960936803F00C03082BFAD1C8E700BF43
:10035800003802401030002400ED00E0007000403A
:1003680008544007003C0240164A936803F00C0307
:10037800042B0BD0082B0BD0134B124A134992684D
:10038800C2F303128A5CD3400B617047104BF4E749
:100398005368516813F4800F01F03F01536814BF8C
:1003A8000B4A094AB2FBF1F1064A5268C2F301420C
:1003B800C3F38813013201FB03F35200B3FBF2F3DA
:1003C800DBE700BF003802400024F40004000020EE
:1003D80000127A000A4B0B481A68002142F0010209
:1003E8001A6099601A6822F0847222F480321A60C6
:1003F80058601A6822F480221A60D960704700BFDA
:100408000038024010300024024B00229A70987085
:10041800704700BF0038024082B0002309490193A9
:1004280000E04AB90A68019B01330193019BB3F5C7
:10043800A06F02F40032F4D1024B1868C0F34040B8
:1004480002B0704700380240034A136823F0F803EB
:1004580043EAC0001060704700380240014B186042
:10046800704700BF00004742084B0022012883F86C
:10047800702083F8702006D0042803D1052283F861
:1004880070207047704783F870007047003802404A
:10049800014BC3F8800E70470000474210B4019C1E
:1004A80040EA046008435B08044C40EA8210013BC0
:1004B80040EA034060605DF8044B70470038024032
:1004C800014B1866704700BF00004742034B0907FD
:1004D80041EA8011C3F88410704700BF0038024019
:1004E800014B9866704700BF00004742014BD86433
:1004F800704700BF00004742034A936823F0EC634B
:100508000B4303439360704700380240034A9368E3
:1005180023F078430B43034393607047003802404D
:10052800034A936823F0030318439060704700BFA1
:1005380000380240024B986800F00C00704700BF7A
:1005480000380240034A936823F0F0031843906090
:10055800704700BF00380240034A936823F4E05311
:1005680018439060704700BF00380240034A936800
:1005780023F4604343EAC0009060704700380240AB
:100588001F4A936803F00C03042B10B41BD0082BEC
:100598001CD01C4B03601A4A1B499468C4F303140B
:1005A8000C5DE34043609468C4F382240C5D23FA35
:1005B80004F4846092685DF8044BC2F342328A5CAA
:1005C800D340C3607047114B0360E4E75368516838
:1005D80013F4800F01F03F01536814BF0B4A094A16
:1005E800B2FBF1F1064A5268C2F30142C3F3881321
:1005F800013201FB03F35200B3FBF2F30360CAE7D5
:10060800003802400024F4001800002000127A008C
:1006180000F44073B3F5407F09D108498A6820F097
:10062800704323F4407322F4F81213438B60034B96
:100638001A6FC0F30B001043186770470038024068
:10064800014BC3F83C0E704700004742014BC3F80A
:10065800400E704700004742014BC3F85C017047E9
:1006680000004742044A136B11B1184310637047E6
:1006780023EA00001063704700380240044A536BB5
:1006880011B118435063704723EA00005063704764
:1006980000380240044A936B11B1184390637047C5
:1006A80023EA00009063704700380240044A136C44
:1006B80011B118431064704723EA000010647047B2
:1006C80000380240044A536C11B118435064704713
:1006D80023EA00005064704700380240044A136956
:1006E80011B118431061704723EA00001061704788
:1006F80000380240044A536911B1184350617047E9
:1007080023EA00005061704700380240044A9369A8
:1007180011B118439061704723EA00009061704757
:1007280000380240044A136A11B118431062704736
:1007380023EA00001062704700380240044A536AF6
:1007480011B118435062704723EA000050627047A5
:1007580000380240044A136D11B118431065704700
:1007680023EA00001065704700380240044A536DC0
:1007780011B118435065704723EA0000506570476F
:1007880000380240044A936D11B1184390657047D0
:1007980023EA00009065704700380240044A136E4F
:1007A80011B118431066704723EA000010667047BD
:1007B80000380240044A536E11B11843506670471E
:1007C80023EA00005066704700380240044A537B11
:1007D80011B118435073704723EA000050737047F3
:1007E800003802404309012B0BD0022B094B0CBFE8
:1007F8001B6F5B6F00F01F0023FA00F000F0010090
:100808007047044B1B6800F01F0023FA00F000F04B
:100818000100704700380240024A536F43F080736A
:100828005367704700380240034BDB68184214BF17
:1008380001200020704700BF00380240014B987328
:10084800704700BF0038024008B53C4B984222D0A0
:100858003B4B984229D03B4B984230D03A4B984278
:100868000FD03A4B984234D0394B98423BD0394B51
:10087800984242D0384B984255D0384B984246D08F
:1008880008BD01210820FFF729FFBDE80840002125
:100898000820FFF723BF01210846FFF71FFFBDE827
:1008A800084000210120FFF719BF01210220FFF7AE
:1008B80015FFBDE8084000210220FFF70FBF012106
:1008C8000420FFF70BFFBDE8084000210420FFF7D4
:1008D80005BF01211020FFF701FFBDE808400021F6
:1008E8001020FFF7FBBE01212020FFF7F7FEBDE82F
:1008F800084000212020FFF7F1BE01214020FFF72A
:10090800EDFEBDE8084000214020FFF7E7BE0121C9
:100918004FF48070FFF7E2FEBDE8084000214FF475
:100928008070FFF7DBBE01218020FFF7D7FEBDE80E
:10093800084000218020FFF7D1BE00BF0000024020
:100948000004024000080240000C0240001002406F
:100958000014024000180240001C0240002002401F
:1009680000222DE9F04713460D684FF0010E0326CB
:1009780004E00133102B02F1020239D00EFA03FC15
:100988003CEA0504F5D1076806FA02F427EA0407E9
:1009980007600F79D0F800A007FA02F9013F49EA89
:1009A8000A09012FA046C0F800906FEA040411D884
:1009B80087683C4084604C79876894403C438460F5
:1009C800446824EA0C0444608C7947689C40A4B2CB
:1009D8003C434460C46824EA0804C460CC79C7680E
:1009E800944001333C43102BC46002F10202C5D18C
:1009F800BDE8F0874FF6FF720023C0E90023704777
:100A080082B04FF480330193019B0B430193019B08
:100A1800C361C161019BC361C3690193C369019348
:100A280002B070470369194214BF012000207047C3
:100A3800006980B2704700BF4369194214BF0120A2
:100A480000207047406980B2704700BF018370473B
:100A5800418370470AB1018370474183704700BFE3
:100A6800416170474369594041617047CB0800EBC9
:100A7800830001F00701036A89004FF00F0C0CFA9C
:100A880001FC23EA0C030362036A8A401A430262E8
:100A9800704700BF540E00080000002058040020D2
:100AA8005804002074040020002301461A46184602
:100AB80000F09CB808B50021044600F0CBF8044BC0
:100AC8001868C36B03B19847204600F0B5F900BF1A
:100AD800FC0D000838B5084B084D5B1B9C1007D06F
:100AE800043B1D44013C55F804399847002CF9D1C2
:100AF800BDE8384000F09AB9540E0008500E0008BE
:100B080070B50D4E0D4D761BB61006D0002455F865
:100B1800043B01349847A642F9D1094E094D761B8A
:100B280000F07EF9B61006D0002455F8043B0134D5
:100B38009847A642F9D170BD480E0008480E000833
:100B4800500E0008480E0008830730B548D0541EE0
:100B5800002A3FD0CAB2034601E0013C3AD303F869
:100B6800012B9D07F9D1032C2DD9CDB245EA0525D6
:100B78000F2C45EA054536D9A4F1100222F00F0CD6
:100B880003F1200EE6444FEA121C03F1100242E979
:100B9800045542E9025510327245F8D10CF10102B0
:100BA80014F00C0F03EB021204F00F0C13D0ACF18D
:100BB800040323F003030433134442F8045B934211
:100BC800FBD10CF003042CB1CAB21C4403F8012B6E
:100BD8009C42FBD130BD64461346002CF4D1F9E7A2
:100BE80003461446BFE71A46A446E0E770B4184C1B
:100BF8002568D5F848411CB365681F2D25DC38B930
:100C0800AB1C0135656044F82310002070BC7047A8
:100C180004EB850C0228CCF88820D4F888614FF0C2
:100C2800010202FA05F246EA0206C4F88861CCF825
:100C38000831E5D1D4F88C311343C4F88C31DFE79F
:100C480005F5A674C5F84841D6E74FF0FF30DDE753
:100C5800FC0D00082DE9F84F2B4B1F68D7F84861A9
:100C68002DED028BC6B108EE100A8B464FF0010835
:100C78004FF000097468651E0ED4013406EB840435
:100C8800BBF1000F0CD0D4F800315B4508D0013D12
:100C98006B1CA4F10404F3D1BDEC028BBDE8F88F02
:100CA80073682268013BAB420CBF7560C4F80090C2
:100CB800002AECD0D6F88801D6F804A008FA05F185
:100CC80001420BD190477268524513D1D7F8483189
:100CD800B342DCD01E46002ECCD1DDE7D6F88C011D
:100CE80001420CD1D4F8801018EE100A90477268AF
:100CF8005245EBD0D7F84861002EBBD1CCE7D4F8E9
:100D080080009047DFE700BFFC0D000800B5012117
:100D180083B00920FFF7A6FC01244FF47043124862
:100D2800124D6946CDE90034FFF71AFE002202236E
:100D38000E48009469468DF804208DF80730FFF7B7
:100D48000FFE094C01212846FFF76CFE03464FF4BD
:100D58007041204613B1FFF779FEF3E74FF4704175
:100D6800FFF776FEEEE700BF000C024000000240ED
:100D7800002103E00B4B5B58435004310A480B4BEE
:100D880042189A42F6D30A4A02E0002342F8043B8A
:100D9800084B9A42F9D3FFF76FFAFFF7B1FEFFF756
:100DA800B5FF7047540E00080000002058040020CA
:100DB8005804002074040020FEE70000024B13B121
:100DC8000248FFF771BE704700000000DD0A000806
:100DD8003A3D0A3D0F3D243D323D023D053D133D60
:100DE8000D3D0C3D233D113D263D013D173D083D80
:100DF800093D0000300000203A3D0A3D0F3D243DEA
:100E0800323D023D053D133D0D3D0C3D233D113D59
:100E1800263D013D173D083D093D0000000000004A
:100E2800F8B500BFF8BC08BC9E467047F8B500BFCF
:080E3800F8BC08BC9E4670479F
:080E4000D0F3FF7F0100000068
:080E4800C50D0008F1010008CE
:040E5000C9010008CC
:100E54000000000000000000000000000102030484
:100E640006070809007A030A0000000001020304CF
:100E740001020304060708093000002000000000F6
:100E8400000000001C03002084030020EC03002069
:100E9400000000000000000000000000000000004E
:100EA400000000000000000000000000000000003E
:100EB400000000000000000000000000000000002E
:100EC400000000000000000000000000000000001E
:100ED400000000000000000000000000000000000E
:100EE40000000000000000000000000000000000FE
:100EF40000000000000000000000000000000000EE
:100F040000000000000000000000000000000000DD
:100F140000000000000000000000000000000000CD
:100F240000000000000000000100000000000000BC
:100F34000E33CDAB34126DE6ECDE05000B00000081
:100F4400000000000000000000000000000000009D
:100F5400000000000000000000000000000000008D
:100F6400000000000000000000000000000000007D
:100F7400000000000000000000000000000000006D
:0400000508000D7969
:00000001FF
